{
  "_format": "hh-sol-artifact-1",
  "contractName": "Allownance",
  "sourceName": "contracts/Allowance.sol",
  "abi": [
    {
      "anonymous": false,
      "inputs": [
        {
          "indexed": true,
          "internalType": "address",
          "name": "_forWho",
          "type": "address"
        },
        {
          "indexed": true,
          "internalType": "address",
          "name": "_forWhom",
          "type": "address"
        },
        {
          "indexed": false,
          "internalType": "uint256",
          "name": "_oldAmount",
          "type": "uint256"
        },
        {
          "indexed": false,
          "internalType": "uint256",
          "name": "_newAmount",
          "type": "uint256"
        }
      ],
      "name": "AllownanceChanged",
      "type": "event"
    },
    {
      "anonymous": false,
      "inputs": [
        {
          "indexed": true,
          "internalType": "address",
          "name": "previousOwner",
          "type": "address"
        },
        {
          "indexed": true,
          "internalType": "address",
          "name": "newOwner",
          "type": "address"
        }
      ],
      "name": "OwnershipTransferred",
      "type": "event"
    },
    {
      "inputs": [
        {
          "internalType": "address",
          "name": "_who",
          "type": "address"
        },
        {
          "internalType": "uint256",
          "name": "_amount",
          "type": "uint256"
        }
      ],
      "name": "addAllowance",
      "outputs": [],
      "stateMutability": "nonpayable",
      "type": "function"
    },
    {
      "inputs": [
        {
          "internalType": "address",
          "name": "",
          "type": "address"
        }
      ],
      "name": "allownance",
      "outputs": [
        {
          "internalType": "uint256",
          "name": "",
          "type": "uint256"
        }
      ],
      "stateMutability": "view",
      "type": "function"
    },
    {
      "inputs": [],
      "name": "isOwner",
      "outputs": [
        {
          "internalType": "bool",
          "name": "",
          "type": "bool"
        }
      ],
      "stateMutability": "view",
      "type": "function"
    },
    {
      "inputs": [],
      "name": "owner",
      "outputs": [
        {
          "internalType": "address",
          "name": "",
          "type": "address"
        }
      ],
      "stateMutability": "view",
      "type": "function"
    },
    {
      "inputs": [
        {
          "internalType": "address",
          "name": "_who",
          "type": "address"
        },
        {
          "internalType": "uint256",
          "name": "_amount",
          "type": "uint256"
        }
      ],
      "name": "reduceAllowance",
      "outputs": [],
      "stateMutability": "nonpayable",
      "type": "function"
    },
    {
      "inputs": [],
      "name": "renounceOwnership",
      "outputs": [],
      "stateMutability": "nonpayable",
      "type": "function"
    },
    {
      "inputs": [
        {
          "internalType": "address",
          "name": "newOwner",
          "type": "address"
        }
      ],
      "name": "transferOwnership",
      "outputs": [],
      "stateMutability": "nonpayable",
      "type": "function"
    }
  ],
  "bytecode": "0x608060405234801561001057600080fd5b5061002d61002261003260201b60201c565b61003a60201b60201c565b6100fe565b600033905090565b60008060009054906101000a900473ffffffffffffffffffffffffffffffffffffffff169050816000806101000a81548173ffffffffffffffffffffffffffffffffffffffff021916908373ffffffffffffffffffffffffffffffffffffffff1602179055508173ffffffffffffffffffffffffffffffffffffffff168173ffffffffffffffffffffffffffffffffffffffff167f8be0079c531659141344cd1fd0a4f28419497f9722a3daafe3b4186f6b6457e060405160405180910390a35050565b610be88061010d6000396000f3fe608060405234801561001057600080fd5b506004361061007d5760003560e01c80638fdf08df1161005b5780638fdf08df146100c85780639d96e9a5146100e4578063f2fde38b14610114578063f3c40c4b146101305761007d565b8063715018a6146100825780638da5cb5b1461008c5780638f32d59b146100aa575b600080fd5b61008a61014c565b005b610094610160565b6040516100a19190610806565b60405180910390f35b6100b2610189565b6040516100bf919061083c565b60405180910390f35b6100e260048036038101906100dd91906108be565b6101c6565b005b6100fe60048036038101906100f991906108fe565b6103e2565b60405161010b919061093a565b60405180910390f35b61012e600480360381019061012991906108fe565b6103fa565b005b61014a600480360381019061014591906108be565b61047d565b005b61015461064f565b61015e60006106cd565b565b60008060009054906101000a900473ffffffffffffffffffffffffffffffffffffffff16905090565b60003373ffffffffffffffffffffffffffffffffffffffff166101aa610160565b73ffffffffffffffffffffffffffffffffffffffff1614905090565b806101cf610189565b80610219575080600160003373ffffffffffffffffffffffffffffffffffffffff1673ffffffffffffffffffffffffffffffffffffffff1681526020019081526020016000205410155b610258576040517f08c379a000000000000000000000000000000000000000000000000000000000815260040161024f906109b2565b60405180910390fd5b3373ffffffffffffffffffffffffffffffffffffffff168373ffffffffffffffffffffffffffffffffffffffff167fa50adaccafdd7b567f0970a439d1fc83105a34fb2a9fb44317b28fe112e07588600160008773ffffffffffffffffffffffffffffffffffffffff1673ffffffffffffffffffffffffffffffffffffffff1681526020019081526020016000205485600160008973ffffffffffffffffffffffffffffffffffffffff1673ffffffffffffffffffffffffffffffffffffffff168152602001908152602001600020546103329190610a01565b604051610340929190610a35565b60405180910390a361039a82600160008673ffffffffffffffffffffffffffffffffffffffff1673ffffffffffffffffffffffffffffffffffffffff1681526020019081526020016000205461079190919063ffffffff16565b600160008573ffffffffffffffffffffffffffffffffffffffff1673ffffffffffffffffffffffffffffffffffffffff16815260200190815260200160002081905550505050565b60016020528060005260406000206000915090505481565b61040261064f565b600073ffffffffffffffffffffffffffffffffffffffff168173ffffffffffffffffffffffffffffffffffffffff1603610471576040517f08c379a000000000000000000000000000000000000000000000000000000000815260040161046890610ad0565b60405180910390fd5b61047a816106cd565b50565b80610486610189565b806104d0575080600160003373ffffffffffffffffffffffffffffffffffffffff1673ffffffffffffffffffffffffffffffffffffffff1681526020019081526020016000205410155b61050f576040517f08c379a0000000000000000000000000000000000000000000000000000000008152600401610506906109b2565b60405180910390fd5b3373ffffffffffffffffffffffffffffffffffffffff168373ffffffffffffffffffffffffffffffffffffffff167fa50adaccafdd7b567f0970a439d1fc83105a34fb2a9fb44317b28fe112e07588600160008773ffffffffffffffffffffffffffffffffffffffff1673ffffffffffffffffffffffffffffffffffffffff16815260200190815260200160002054856040516105ad929190610a35565b60405180910390a361060782600160008673ffffffffffffffffffffffffffffffffffffffff1673ffffffffffffffffffffffffffffffffffffffff168152602001908152602001600020546107a790919063ffffffff16565b600160008573ffffffffffffffffffffffffffffffffffffffff1673ffffffffffffffffffffffffffffffffffffffff16815260200190815260200160002081905550505050565b6106576107bd565b73ffffffffffffffffffffffffffffffffffffffff16610675610160565b73ffffffffffffffffffffffffffffffffffffffff16146106cb576040517f08c379a00000000000000000000000000000000000000000000000000000000081526004016106c290610b3c565b60405180910390fd5b565b60008060009054906101000a900473ffffffffffffffffffffffffffffffffffffffff169050816000806101000a81548173ffffffffffffffffffffffffffffffffffffffff021916908373ffffffffffffffffffffffffffffffffffffffff1602179055508173ffffffffffffffffffffffffffffffffffffffff168173ffffffffffffffffffffffffffffffffffffffff167f8be0079c531659141344cd1fd0a4f28419497f9722a3daafe3b4186f6b6457e060405160405180910390a35050565b6000818361079f9190610a01565b905092915050565b600081836107b59190610b5c565b905092915050565b600033905090565b600073ffffffffffffffffffffffffffffffffffffffff82169050919050565b60006107f0826107c5565b9050919050565b610800816107e5565b82525050565b600060208201905061081b60008301846107f7565b92915050565b60008115159050919050565b61083681610821565b82525050565b6000602082019050610851600083018461082d565b92915050565b600080fd5b610865816107e5565b811461087057600080fd5b50565b6000813590506108828161085c565b92915050565b6000819050919050565b61089b81610888565b81146108a657600080fd5b50565b6000813590506108b881610892565b92915050565b600080604083850312156108d5576108d4610857565b5b60006108e385828601610873565b92505060206108f4858286016108a9565b9150509250929050565b60006020828403121561091457610913610857565b5b600061092284828501610873565b91505092915050565b61093481610888565b82525050565b600060208201905061094f600083018461092b565b92915050565b600082825260208201905092915050565b7f596f7520617265206e6f7420616c6c6f77656400000000000000000000000000600082015250565b600061099c601383610955565b91506109a782610966565b602082019050919050565b600060208201905081810360008301526109cb8161098f565b9050919050565b7f4e487b7100000000000000000000000000000000000000000000000000000000600052601160045260246000fd5b6000610a0c82610888565b9150610a1783610888565b925082821015610a2a57610a296109d2565b5b828203905092915050565b6000604082019050610a4a600083018561092b565b610a57602083018461092b565b9392505050565b7f4f776e61626c653a206e6577206f776e657220697320746865207a65726f206160008201527f6464726573730000000000000000000000000000000000000000000000000000602082015250565b6000610aba602683610955565b9150610ac582610a5e565b604082019050919050565b60006020820190508181036000830152610ae981610aad565b9050919050565b7f4f776e61626c653a2063616c6c6572206973206e6f7420746865206f776e6572600082015250565b6000610b26602083610955565b9150610b3182610af0565b602082019050919050565b60006020820190508181036000830152610b5581610b19565b9050919050565b6000610b6782610888565b9150610b7283610888565b9250827fffffffffffffffffffffffffffffffffffffffffffffffffffffffffffffffff03821115610ba757610ba66109d2565b5b82820190509291505056fea2646970667358221220425b526e320a38ae87360d1e9deee251aeaf3b239ce7fff2c01adf537a7f646b64736f6c634300080d0033",
  "linkReferences": {},
  "deployedLinkReferences": {}
}