{
  "_format": "hh-sol-artifact-1",
  "contractName": "FundWallet",
  "sourceName": "contracts/FundWallet.sol",
  "abi": [
    {
      "anonymous": false,
      "inputs": [
        {
          "indexed": true,
          "internalType": "address",
          "name": "_forWho",
          "type": "address"
        },
        {
          "indexed": true,
          "internalType": "address",
          "name": "_forWhom",
          "type": "address"
        },
        {
          "indexed": false,
          "internalType": "uint256",
          "name": "_oldAmount",
          "type": "uint256"
        },
        {
          "indexed": false,
          "internalType": "uint256",
          "name": "_newAmount",
          "type": "uint256"
        }
      ],
      "name": "AllownanceChanged",
      "type": "event"
    },
    {
      "anonymous": false,
      "inputs": [
        {
          "indexed": false,
          "internalType": "address",
          "name": "_from",
          "type": "address"
        },
        {
          "indexed": false,
          "internalType": "uint256",
          "name": "_amount",
          "type": "uint256"
        }
      ],
      "name": "MoneyFrom",
      "type": "event"
    },
    {
      "anonymous": false,
      "inputs": [
        {
          "indexed": false,
          "internalType": "address",
          "name": "_to",
          "type": "address"
        },
        {
          "indexed": false,
          "internalType": "uint256",
          "name": "_amount",
          "type": "uint256"
        }
      ],
      "name": "MoneySent",
      "type": "event"
    },
    {
      "anonymous": false,
      "inputs": [
        {
          "indexed": true,
          "internalType": "address",
          "name": "previousOwner",
          "type": "address"
        },
        {
          "indexed": true,
          "internalType": "address",
          "name": "newOwner",
          "type": "address"
        }
      ],
      "name": "OwnershipTransferred",
      "type": "event"
    },
    {
      "inputs": [
        {
          "internalType": "address",
          "name": "_who",
          "type": "address"
        },
        {
          "internalType": "uint256",
          "name": "_amount",
          "type": "uint256"
        }
      ],
      "name": "addAllowance",
      "outputs": [],
      "stateMutability": "nonpayable",
      "type": "function"
    },
    {
      "inputs": [
        {
          "internalType": "address",
          "name": "",
          "type": "address"
        }
      ],
      "name": "allownance",
      "outputs": [
        {
          "internalType": "uint256",
          "name": "",
          "type": "uint256"
        }
      ],
      "stateMutability": "view",
      "type": "function"
    },
    {
      "inputs": [],
      "name": "isOwner",
      "outputs": [
        {
          "internalType": "bool",
          "name": "",
          "type": "bool"
        }
      ],
      "stateMutability": "view",
      "type": "function"
    },
    {
      "inputs": [],
      "name": "owner",
      "outputs": [
        {
          "internalType": "address",
          "name": "",
          "type": "address"
        }
      ],
      "stateMutability": "view",
      "type": "function"
    },
    {
      "inputs": [
        {
          "internalType": "address",
          "name": "_who",
          "type": "address"
        },
        {
          "internalType": "uint256",
          "name": "_amount",
          "type": "uint256"
        }
      ],
      "name": "reduceAllowance",
      "outputs": [],
      "stateMutability": "nonpayable",
      "type": "function"
    },
    {
      "inputs": [],
      "name": "renounceOwnership",
      "outputs": [],
      "stateMutability": "nonpayable",
      "type": "function"
    },
    {
      "inputs": [
        {
          "internalType": "address",
          "name": "newOwner",
          "type": "address"
        }
      ],
      "name": "transferOwnership",
      "outputs": [],
      "stateMutability": "nonpayable",
      "type": "function"
    },
    {
      "inputs": [
        {
          "internalType": "address payable",
          "name": "_to",
          "type": "address"
        },
        {
          "internalType": "uint256",
          "name": "_amount",
          "type": "uint256"
        }
      ],
      "name": "withdrawMoney",
      "outputs": [],
      "stateMutability": "nonpayable",
      "type": "function"
    },
    {
      "stateMutability": "payable",
      "type": "receive"
    }
  ],
  "bytecode": "0x608060405234801561001057600080fd5b5061002d61002261003260201b60201c565b61003a60201b60201c565b6100fe565b600033905090565b60008060009054906101000a900473ffffffffffffffffffffffffffffffffffffffff169050816000806101000a81548173ffffffffffffffffffffffffffffffffffffffff021916908373ffffffffffffffffffffffffffffffffffffffff1602179055508173ffffffffffffffffffffffffffffffffffffffff168173ffffffffffffffffffffffffffffffffffffffff167f8be0079c531659141344cd1fd0a4f28419497f9722a3daafe3b4186f6b6457e060405160405180910390a35050565b610f0b8061010d6000396000f3fe60806040526004361061007f5760003560e01c80639d96e9a51161004e5780639d96e9a51461015a578063f274c89714610197578063f2fde38b146101c0578063f3c40c4b146101e9576100bf565b8063715018a6146100c45780638da5cb5b146100db5780638f32d59b146101065780638fdf08df14610131576100bf565b366100bf577fcfd1a478a809583b8b60f381d99c68b8c9fe8f1f87975e725b3e45062279134233346040516100b5929190610a13565b60405180910390a1005b600080fd5b3480156100d057600080fd5b506100d9610212565b005b3480156100e757600080fd5b506100f0610226565b6040516100fd9190610a3c565b60405180910390f35b34801561011257600080fd5b5061011b61024f565b6040516101289190610a72565b60405180910390f35b34801561013d57600080fd5b5061015860048036038101906101539190610aea565b61028c565b005b34801561016657600080fd5b50610181600480360381019061017c9190610b2a565b6104a8565b60405161018e9190610b57565b60405180910390f35b3480156101a357600080fd5b506101be60048036038101906101b99190610bb0565b6104c0565b005b3480156101cc57600080fd5b506101e760048036038101906101e29190610b2a565b6105ee565b005b3480156101f557600080fd5b50610210600480360381019061020b9190610aea565b610671565b005b61021a610843565b61022460006108c1565b565b60008060009054906101000a900473ffffffffffffffffffffffffffffffffffffffff16905090565b60003373ffffffffffffffffffffffffffffffffffffffff16610270610226565b73ffffffffffffffffffffffffffffffffffffffff1614905090565b8061029561024f565b806102df575080600160003373ffffffffffffffffffffffffffffffffffffffff1673ffffffffffffffffffffffffffffffffffffffff1681526020019081526020016000205410155b61031e576040517f08c379a000000000000000000000000000000000000000000000000000000000815260040161031590610c4d565b60405180910390fd5b3373ffffffffffffffffffffffffffffffffffffffff168373ffffffffffffffffffffffffffffffffffffffff167fa50adaccafdd7b567f0970a439d1fc83105a34fb2a9fb44317b28fe112e07588600160008773ffffffffffffffffffffffffffffffffffffffff1673ffffffffffffffffffffffffffffffffffffffff1681526020019081526020016000205485600160008973ffffffffffffffffffffffffffffffffffffffff1673ffffffffffffffffffffffffffffffffffffffff168152602001908152602001600020546103f89190610c9c565b604051610406929190610cd0565b60405180910390a361046082600160008673ffffffffffffffffffffffffffffffffffffffff1673ffffffffffffffffffffffffffffffffffffffff1681526020019081526020016000205461098590919063ffffffff16565b600160008573ffffffffffffffffffffffffffffffffffffffff1673ffffffffffffffffffffffffffffffffffffffff16815260200190815260200160002081905550505050565b60016020528060005260406000206000915090505481565b806104c961024f565b80610513575080600160003373ffffffffffffffffffffffffffffffffffffffff1673ffffffffffffffffffffffffffffffffffffffff1681526020019081526020016000205410155b610552576040517f08c379a000000000000000000000000000000000000000000000000000000000815260040161054990610c4d565b60405180910390fd5b61055a61024f565b61056957610568338361028c565b5b8273ffffffffffffffffffffffffffffffffffffffff166108fc839081150290604051600060405180830381858888f193505050501580156105af573d6000803e3d6000fd5b507f7f51d406915971d4ac1c91af96be5187ea6ab64753785aad519a533def80a41e83836040516105e1929190610d58565b60405180910390a1505050565b6105f6610843565b600073ffffffffffffffffffffffffffffffffffffffff168173ffffffffffffffffffffffffffffffffffffffff1603610665576040517f08c379a000000000000000000000000000000000000000000000000000000000815260040161065c90610df3565b60405180910390fd5b61066e816108c1565b50565b8061067a61024f565b806106c4575080600160003373ffffffffffffffffffffffffffffffffffffffff1673ffffffffffffffffffffffffffffffffffffffff1681526020019081526020016000205410155b610703576040517f08c379a00000000000000000000000000000000000000000000000000000000081526004016106fa90610c4d565b60405180910390fd5b3373ffffffffffffffffffffffffffffffffffffffff168373ffffffffffffffffffffffffffffffffffffffff167fa50adaccafdd7b567f0970a439d1fc83105a34fb2a9fb44317b28fe112e07588600160008773ffffffffffffffffffffffffffffffffffffffff1673ffffffffffffffffffffffffffffffffffffffff16815260200190815260200160002054856040516107a1929190610cd0565b60405180910390a36107fb82600160008673ffffffffffffffffffffffffffffffffffffffff1673ffffffffffffffffffffffffffffffffffffffff1681526020019081526020016000205461099b90919063ffffffff16565b600160008573ffffffffffffffffffffffffffffffffffffffff1673ffffffffffffffffffffffffffffffffffffffff16815260200190815260200160002081905550505050565b61084b6109b1565b73ffffffffffffffffffffffffffffffffffffffff16610869610226565b73ffffffffffffffffffffffffffffffffffffffff16146108bf576040517f08c379a00000000000000000000000000000000000000000000000000000000081526004016108b690610e5f565b60405180910390fd5b565b60008060009054906101000a900473ffffffffffffffffffffffffffffffffffffffff169050816000806101000a81548173ffffffffffffffffffffffffffffffffffffffff021916908373ffffffffffffffffffffffffffffffffffffffff1602179055508173ffffffffffffffffffffffffffffffffffffffff168173ffffffffffffffffffffffffffffffffffffffff167f8be0079c531659141344cd1fd0a4f28419497f9722a3daafe3b4186f6b6457e060405160405180910390a35050565b600081836109939190610c9c565b905092915050565b600081836109a99190610e7f565b905092915050565b600033905090565b600073ffffffffffffffffffffffffffffffffffffffff82169050919050565b60006109e4826109b9565b9050919050565b6109f4816109d9565b82525050565b6000819050919050565b610a0d816109fa565b82525050565b6000604082019050610a2860008301856109eb565b610a356020830184610a04565b9392505050565b6000602082019050610a5160008301846109eb565b92915050565b60008115159050919050565b610a6c81610a57565b82525050565b6000602082019050610a876000830184610a63565b92915050565b600080fd5b610a9b816109d9565b8114610aa657600080fd5b50565b600081359050610ab881610a92565b92915050565b610ac7816109fa565b8114610ad257600080fd5b50565b600081359050610ae481610abe565b92915050565b60008060408385031215610b0157610b00610a8d565b5b6000610b0f85828601610aa9565b9250506020610b2085828601610ad5565b9150509250929050565b600060208284031215610b4057610b3f610a8d565b5b6000610b4e84828501610aa9565b91505092915050565b6000602082019050610b6c6000830184610a04565b92915050565b6000610b7d826109b9565b9050919050565b610b8d81610b72565b8114610b9857600080fd5b50565b600081359050610baa81610b84565b92915050565b60008060408385031215610bc757610bc6610a8d565b5b6000610bd585828601610b9b565b9250506020610be685828601610ad5565b9150509250929050565b600082825260208201905092915050565b7f596f7520617265206e6f7420616c6c6f77656400000000000000000000000000600082015250565b6000610c37601383610bf0565b9150610c4282610c01565b602082019050919050565b60006020820190508181036000830152610c6681610c2a565b9050919050565b7f4e487b7100000000000000000000000000000000000000000000000000000000600052601160045260246000fd5b6000610ca7826109fa565b9150610cb2836109fa565b925082821015610cc557610cc4610c6d565b5b828203905092915050565b6000604082019050610ce56000830185610a04565b610cf26020830184610a04565b9392505050565b6000819050919050565b6000610d1e610d19610d14846109b9565b610cf9565b6109b9565b9050919050565b6000610d3082610d03565b9050919050565b6000610d4282610d25565b9050919050565b610d5281610d37565b82525050565b6000604082019050610d6d6000830185610d49565b610d7a6020830184610a04565b9392505050565b7f4f776e61626c653a206e6577206f776e657220697320746865207a65726f206160008201527f6464726573730000000000000000000000000000000000000000000000000000602082015250565b6000610ddd602683610bf0565b9150610de882610d81565b604082019050919050565b60006020820190508181036000830152610e0c81610dd0565b9050919050565b7f4f776e61626c653a2063616c6c6572206973206e6f7420746865206f776e6572600082015250565b6000610e49602083610bf0565b9150610e5482610e13565b602082019050919050565b60006020820190508181036000830152610e7881610e3c565b9050919050565b6000610e8a826109fa565b9150610e95836109fa565b9250827fffffffffffffffffffffffffffffffffffffffffffffffffffffffffffffffff03821115610eca57610ec9610c6d565b5b82820190509291505056fea2646970667358221220d42e1e7da67305cc8798e43e9e6345cde5b157c1da6c386dfebc0de9bbe3f2e964736f6c634300080d0033",
  "linkReferences": {},
  "deployedLinkReferences": {}
}